{
  "_format": "hh-sol-artifact-1",
  "contractName": "NFT",
  "sourceName": "contracts/NFT.sol",
  "abi": [
    {
      "inputs": [],
      "stateMutability": "nonpayable",
      "type": "constructor"
    },
    {
      "anonymous": false,
      "inputs": [
        {
          "indexed": true,
          "internalType": "address",
          "name": "owner",
          "type": "address"
        },
        {
          "indexed": true,
          "internalType": "address",
          "name": "approved",
          "type": "address"
        },
        {
          "indexed": true,
          "internalType": "uint256",
          "name": "tokenId",
          "type": "uint256"
        }
      ],
      "name": "Approval",
      "type": "event"
    },
    {
      "anonymous": false,
      "inputs": [
        {
          "indexed": true,
          "internalType": "address",
          "name": "owner",
          "type": "address"
        },
        {
          "indexed": true,
          "internalType": "address",
          "name": "operator",
          "type": "address"
        },
        {
          "indexed": false,
          "internalType": "bool",
          "name": "approved",
          "type": "bool"
        }
      ],
      "name": "ApprovalForAll",
      "type": "event"
    },
    {
      "anonymous": false,
      "inputs": [
        {
          "indexed": false,
          "internalType": "address",
          "name": "sender",
          "type": "address"
        },
        {
          "indexed": false,
          "internalType": "uint256",
          "name": "tokenId",
          "type": "uint256"
        }
      ],
      "name": "NewEpicNFTMinted",
      "type": "event"
    },
    {
      "anonymous": false,
      "inputs": [
        {
          "indexed": true,
          "internalType": "address",
          "name": "from",
          "type": "address"
        },
        {
          "indexed": true,
          "internalType": "address",
          "name": "to",
          "type": "address"
        },
        {
          "indexed": true,
          "internalType": "uint256",
          "name": "tokenId",
          "type": "uint256"
        }
      ],
      "name": "Transfer",
      "type": "event"
    },
    {
      "inputs": [
        {
          "internalType": "address",
          "name": "to",
          "type": "address"
        },
        {
          "internalType": "uint256",
          "name": "tokenId",
          "type": "uint256"
        }
      ],
      "name": "approve",
      "outputs": [],
      "stateMutability": "nonpayable",
      "type": "function"
    },
    {
      "inputs": [
        {
          "internalType": "address",
          "name": "owner",
          "type": "address"
        }
      ],
      "name": "balanceOf",
      "outputs": [
        {
          "internalType": "uint256",
          "name": "",
          "type": "uint256"
        }
      ],
      "stateMutability": "view",
      "type": "function"
    },
    {
      "inputs": [
        {
          "internalType": "uint256",
          "name": "tokenId",
          "type": "uint256"
        }
      ],
      "name": "getApproved",
      "outputs": [
        {
          "internalType": "address",
          "name": "",
          "type": "address"
        }
      ],
      "stateMutability": "view",
      "type": "function"
    },
    {
      "inputs": [
        {
          "internalType": "address",
          "name": "owner",
          "type": "address"
        },
        {
          "internalType": "address",
          "name": "operator",
          "type": "address"
        }
      ],
      "name": "isApprovedForAll",
      "outputs": [
        {
          "internalType": "bool",
          "name": "",
          "type": "bool"
        }
      ],
      "stateMutability": "view",
      "type": "function"
    },
    {
      "inputs": [],
      "name": "makeAnEpicNFT",
      "outputs": [],
      "stateMutability": "nonpayable",
      "type": "function"
    },
    {
      "inputs": [],
      "name": "name",
      "outputs": [
        {
          "internalType": "tring",
          "name": "",
          "type": "string"
        }
      ],
      "stateMutability": "view",
      "type": "function"
    },
    {
      "inputs": [
        {
          "internalType": "uint256",
          "name": "tokenId",
          "type": "uint256"
        }
      ],
      "name": "ownerOf",
      "outputs": [
        {
          "internalType": "address",
          "name": "",
          "type": "address"
        }
      ],
      "stateMutability": "view",
      "type": "function"
    },
    {
      "inputs": [
        {
          "internalType": "uint256",
          "name": "tokenId",
          "type": "uint256"
        }
      ],
      "name": "pickRandomColor",
      "outputs": [
        {
          "internalType": "string",
          "name": "",
          "type": "string"
        }
      ],
      "stateMutability": "view",
      "type": "function"
    },
    {
      "inputs": [
        {
          "internalType": "uint256",
          "name": "tokenId",
          "type": "uint256"
        }
      ],
      "name": "pickRandomFirstWord",
      "outputs": [
        {
          "internalType": "string",
          "name": "",
          "type": "string"
        }
      ],
      "stateMutability": "view",
      "type": "function"
    },
    {
      "inputs": [
        {
          "internalType": "uint256",
          "name": "tokenId",
          "type": "uint256"
        }
      ],
      "name": "pickRandomSecondWord",
      "outputs": [
        {
          "internalType": "string",
          "name": "",
          "type": "string"
        }
      ],
      "stateMutability": "view",
      "type": "function"
    },
    {
      "inputs": [
        {
          "internalType": "uint256",
          "name": "tokenId",
          "type": "uint256"
        }
      ],
      "name": "pickRandomThirdWord",
      "outputs": [
        {
          "internalType": "string",
          "name": "",
          "type": "string"
        }
      ],
      "stateMutability": "view",
      "type": "function"
    },
    {
      "inputs": [
        {
          "internalType": "address",
          "name": "from",
          "type": "address"
        },
        {
          "internalType": "address",
          "name": "to",
          "type": "address"
        },
        {
          "internalType": "uint256",
          "name": "tokenId",
          "type": "uint256"
        }
      ],
      "name": "safeTransferFrom",
      "outputs": [],
      "stateMutability": "nonpayable",
      "type": "function"
    },
    {
      "inputs": [
        {
          "internalType": "address",
          "name": "from",
          "type": "address"
        },
        {
          "internalType": "address",
          "name": "to",
          "type": "address"
        },
        {
          "internalType": "uint256",
          "name": "tokenId",
          "type": "uint256"
        },
        {
          "internalType": "bytes",
          "name": "_data",
          "type": "bytes"
        }
      ],
      "name": "safeTransferFrom",
      "outputs": [],
      "stateMutability": "nonpayable",
      "type": "function"
    },
    {
      "inputs": [
        {
          "internalType": "address",
          "name": "operator",
          "type": "address"
        },
        {
          "internalType": "bool",
          "name": "approved",
          "type": "bool"
        }
      ],
      "name": "setApprovalForAll",
      "outputs": [],
      "stateMutability": "nonpayable",
      "type": "function"
    },
    {
      "inputs": [
        {
          "internalType": "bytes4",
          "name": "interfaceId",
          "type": "bytes4"
        }
      ],
      "name": "supportsInterface",
      "outputs": [
        {
          "internalType": "bool",
          "name": "",
          "type": "bool"
        }
      ],
      "stateMutability": "view",
      "type": "function"
    },
    {
      "inputs": [],
      "name": "symbol",
      "outputs": [
        {
          "internalType": "string",
          "name": "",
          "type": "string"
        }
      ],
      "stateMutability": "view",
      "type": "function"
    },
    {
      "inputs": [
        {
          "internalType": "uint256",
          "name": "tokenId",
          "type": "uint256"
        }
      ],
      "name": "tokenURI",
      "outputs": [
        {
          "internalType": "string",
          "name": "",
          "type": "string"
        }
      ],
      "stateMutability": "view",
      "type": "function"
    },
    {
      "inputs": [
        {
          "internalType": "address",
          "name": "from",
          "type": "address"
        },
        {
          "internalType": "address",
          "name": "to",
          "type": "address"
        },
        {
          "internalType": "uint256",
          "name": "tokenId",
          "type": "uint256"
        }
      ],
      "name": "transferFrom",
      "outputs": [],
      "stateMutability": "nonpayable",
      "type": "function"
    }
  ],
  "bytecode": "0x608060405260405180610100016040528060d38152602001620044c760d39139600890805190602001906200003692919062000619565b506040518060800160405280605681526020016200459a60569139600990805190602001906200006892919062000619565b5060405180606001604052806040518060400160405280600481526020017f424c41480000000000000000000000000000000000000000000000000000000081525081526020016040518060400160405280600481526020017f424c41480000000000000000000000000000000000000000000000000000000081525081526020016040518060400160405280600481526020017f424c414800000000000000000000000000000000000000000000000000000000815250815250600a90600362000135929190620006aa565b5060405180606001604052806040518060400160405280600481526020017f424c41480000000000000000000000000000000000000000000000000000000081525081526020016040518060400160405280600481526020017f424c41480000000000000000000000000000000000000000000000000000000081525081526020016040518060400160405280600481526020017f424c414800000000000000000000000000000000000000000000000000000000815250815250600b90600362000202929190620006aa565b5060405180606001604052806040518060400160405280600481526020017f424c41480000000000000000000000000000000000000000000000000000000081525081526020016040518060400160405280600481526020017f424c41480000000000000000000000000000000000000000000000000000000081525081526020016040518060400160405280600481526020017f424c414800000000000000000000000000000000000000000000000000000000815250815250600c906003620002cf929190620006aa565b506040518060c001604052806040518060400160405280600381526020017f726564000000000000000000000000000000000000000000000000000000000081525081526020016040518060400160405280600781526020017f233038433241380000000000000000000000000000000000000000000000000081525081526020016040518060400160405280600581526020017f626c61636b00000000000000000000000000000000000000000000000000000081525081526020016040518060400160405280600681526020017f79656c6c6f77000000000000000000000000000000000000000000000000000081525081526020016040518060400160405280600481526020017f626c75650000000000000000000000000000000000000000000000000000000081525081526020016040518060400160405280600581526020017f677265656e000000000000000000000000000000000000000000000000000000815250815250600d9060066200044d92919062000711565b503480156200045b57600080fd5b506040518060400160405280600981526020017f5371756172654e465400000000000000000000000000000000000000000000008152506040518060400160405280600681526020017f53515541524500000000000000000000000000000000000000000000000000008152508160009080519060200190620004e092919062000619565b508060019080519060200190620004f992919062000619565b505050620005476040518060400160405280601e81526020017f54686973206973206d79204e465420636f6e74726163742e20576f61682100008152506200054d60201b6200122a1760201c565b62000932565b620005ed8160405160240162000564919062000846565b6040516020818303038152906040527f41304fac000000000000000000000000000000000000000000000000000000007bffffffffffffffffffffffffffffffffffffffffffffffffffffffff19166020820180517bffffffffffffffffffffffffffffffffffffffffffffffffffffffff8381831617835250505050620005f060201b60201c565b50565b60008151905060006a636f6e736f6c652e6c6f679050602083016000808483855afa5050505050565b8280546200062790620008bc565b90600052602060002090601f0160209004810192826200064b576000855562000697565b82601f106200066657805160ff191683800117855562000697565b8280016001018555821562000697579182015b828111156200069657825182559160200191906001019062000679565b5b509050620006a6919062000778565b5090565b828054828255906000526020600020908101928215620006fe579160200282015b82811115620006fd578251829080519060200190620006ec92919062000619565b5091602001919060010190620006cb565b5b5090506200070d919062000797565b5090565b82805482825590600052602060002090810192821562000765579160200282015b82811115620007645782518290805190602001906200075392919062000619565b509160200191906001019062000732565b5b50905062000774919062000797565b5090565b5b808211156200079357600081600090555060010162000779565b5090565b5b80821115620007bb5760008181620007b19190620007bf565b5060010162000798565b5090565b508054620007cd90620008bc565b6000825580601f10620007e1575062000802565b601f01602090049060005260206000209081019062000801919062000778565b5b50565b600062000812826200086a565b6200081e818562000875565b93506200083081856020860162000886565b6200083b8162000921565b840191505092915050565b6000602082019050818103600083015262000862818462000805565b905092915050565b600081519050919050565b600082825260208201905092915050565b60005b83811015620008a657808201518184015260208101905062000889565b83811115620008b6576000848401525b50505050565b60006002820490506001821680620008d557607f821691505b60208210811415620008ec57620008eb620008f2565b5b50919050565b7f4e487b7100000000000000000000000000000000000000000000000000000000600052602260045260246000fd5b6000601f19601f8301169050919050565b613b8580620009426000396000f3fe608060405234801561001057600080fd5b50600436106101165760003560e01c806370a08231116100a2578063b88d4fde11610071578063b88d4fde14610317578063c575757a14610333578063c87b56dd14610363578063de9d132f14610393578063e985e9c51461039d57610116565b806370a082311461027d57806395d89b41146102ad578063a22cb465146102cb578063b187301f146102e757610116565b806323b872dd116100e957806323b872dd146101b55780632de38d68146101d157806342842e0e14610201578063514dc8c61461021d5780636352211e1461024d57610116565b806301ffc9a71461011b57806306fdde031461014b578063081812fc14610169578063095ea7b314610199575b600080fd5b6101356004803603810190610130919061260b565b6103cd565b6040516101429190612d74565b60405180910390f35b6101536104af565b6040516101609190612d8f565b60405180910390f35b610183600480360381019061017e919061265d565b610541565b6040516101909190612ce4565b60405180910390f35b6101b360048036038101906101ae91906125cf565b6105c6565b005b6101cf60048036038101906101ca91906124c9565b6106de565b005b6101eb60048036038101906101e6919061265d565b61073e565b6040516101f89190612d8f565b60405180910390f35b61021b600480360381019061021691906124c9565b61085c565b005b6102376004803603810190610232919061265d565b61087c565b6040516102449190612d8f565b60405180910390f35b6102676004803603810190610262919061265d565b61099a565b6040516102749190612ce4565b60405180910390f35b61029760048036038101906102929190612464565b610a4c565b6040516102a49190612fef565b60405180910390f35b6102b5610b04565b6040516102c29190612d8f565b60405180910390f35b6102e560048036038101906102e09190612593565b610b96565b005b61030160048036038101906102fc919061265d565b610bac565b60405161030e9190612d8f565b60405180910390f35b610331600480360381019061032c9190612518565b610cca565b005b61034d6004803603810190610348919061265d565b610d2c565b60405161035a9190612d8f565b60405180910390f35b61037d6004803603810190610378919061265d565b610e4a565b60405161038a9190612d8f565b60405180910390f35b61039b610f9c565b005b6103b760048036038101906103b2919061248d565b611196565b6040516103c49190612d74565b60405180910390f35b60007f80ac58cd000000000000000000000000000000000000000000000000000000007bffffffffffffffffffffffffffffffffffffffffffffffffffffffff1916827bffffffffffffffffffffffffffffffffffffffffffffffffffffffff1916148061049857507f5b5e139f000000000000000000000000000000000000000000000000000000007bffffffffffffffffffffffffffffffffffffffffffffffffffffffff1916827bffffffffffffffffffffffffffffffffffffffffffffffffffffffff1916145b806104a857506104a7826112c3565b5b9050919050565b6060600080546104be90613283565b80601f01602080910402602001604051908101604052809291908181526020018280546104ea90613283565b80156105375780601f1061050c57610100808354040283529160200191610537565b820191906000526020600020905b81548152906001019060200180831161051a57829003601f168201915b5050505050905090565b600061054c8261132d565b61058b576040517f08c379a000000000000000000000000000000000000000000000000000000000815260040161058290612f4f565b60405180910390fd5b6004600083815260200190815260200160002060009054906101000a900473ffffffffffffffffffffffffffffffffffffffff169050919050565b60006105d18261099a565b90508073ffffffffffffffffffffffffffffffffffffffff168373ffffffffffffffffffffffffffffffffffffffff161415610642576040517f08c379a000000000000000000000000000000000000000000000000000000000815260040161063990612faf565b60405180910390fd5b8073ffffffffffffffffffffffffffffffffffffffff16610661611399565b73ffffffffffffffffffffffffffffffffffffffff161480610690575061068f8161068a611399565b611196565b5b6106cf576040517f08c379a00000000000000000000000000000000000000000000000000000000081526004016106c690612e8f565b60405180910390fd5b6106d983836113a1565b505050565b6106ef6106e9611399565b8261145a565b61072e576040517f08c379a000000000000000000000000000000000000000000000000000000000815260040161072590612fcf565b60405180910390fd5b610739838383611538565b505050565b6060600061077261074e84611794565b60405160200161075e9190612c7e565b604051602081830303815290604052611941565b9050600a8054905081610785919061332f565b9050600a81815481106107c1577f4e487b7100000000000000000000000000000000000000000000000000000000600052603260045260246000fd5b9060005260206000200180546107d690613283565b80601f016020809104026020016040519081016040528092919081815260200182805461080290613283565b801561084f5780601f106108245761010080835404028352916020019161084f565b820191906000526020600020905b81548152906001019060200180831161083257829003601f168201915b5050505050915050919050565b61087783838360405180602001604052806000815250610cca565b505050565b606060006108b061088c84611794565b60405160200161089c9190612cc2565b604051602081830303815290604052611941565b9050600d80549050816108c3919061332f565b9050600d81815481106108ff577f4e487b7100000000000000000000000000000000000000000000000000000000600052603260045260246000fd5b90600052602060002001805461091490613283565b80601f016020809104026020016040519081016040528092919081815260200182805461094090613283565b801561098d5780601f106109625761010080835404028352916020019161098d565b820191906000526020600020905b81548152906001019060200180831161097057829003601f168201915b5050505050915050919050565b6000806002600084815260200190815260200160002060009054906101000a900473ffffffffffffffffffffffffffffffffffffffff169050600073ffffffffffffffffffffffffffffffffffffffff168173ffffffffffffffffffffffffffffffffffffffff161415610a43576040517f08c379a0000000000000000000000000000000000000000000000000000000008152600401610a3a90612ecf565b60405180910390fd5b80915050919050565b60008073ffffffffffffffffffffffffffffffffffffffff168273ffffffffffffffffffffffffffffffffffffffff161415610abd576040517f08c379a0000000000000000000000000000000000000000000000000000000008152600401610ab490612eaf565b60405180910390fd5b600360008373ffffffffffffffffffffffffffffffffffffffff1673ffffffffffffffffffffffffffffffffffffffff168152602001908152602001600020549050919050565b606060018054610b1390613283565b80601f0160208091040260200160405190810160405280929190818152602001828054610b3f90613283565b8015610b8c5780601f10610b6157610100808354040283529160200191610b8c565b820191906000526020600020905b815481529060010190602001808311610b6f57829003601f168201915b5050505050905090565b610ba8610ba1611399565b8383611974565b5050565b60606000610be0610bbc84611794565b604051602001610bcc9190612c17565b604051602081830303815290604052611941565b9050600b8054905081610bf3919061332f565b9050600b8181548110610c2f577f4e487b7100000000000000000000000000000000000000000000000000000000600052603260045260246000fd5b906000526020600020018054610c4490613283565b80601f0160208091040260200160405190810160405280929190818152602001828054610c7090613283565b8015610cbd5780601f10610c9257610100808354040283529160200191610cbd565b820191906000526020600020905b815481529060010190602001808311610ca057829003601f168201915b5050505050915050919050565b610cdb610cd5611399565b8361145a565b610d1a576040517f08c379a0000000000000000000000000000000000000000000000000000000008152600401610d1190612fcf565b60405180910390fd5b610d2684848484611ae1565b50505050565b60606000610d60610d3c84611794565b604051602001610d4c9190612bf5565b604051602081830303815290604052611941565b9050600c8054905081610d73919061332f565b9050600c8181548110610daf577f4e487b7100000000000000000000000000000000000000000000000000000000600052603260045260246000fd5b906000526020600020018054610dc490613283565b80601f0160208091040260200160405190810160405280929190818152602001828054610df090613283565b8015610e3d5780601f10610e1257610100808354040283529160200191610e3d565b820191906000526020600020905b815481529060010190602001808311610e2057829003601f168201915b5050505050915050919050565b6060610e558261132d565b610e94576040517f08c379a0000000000000000000000000000000000000000000000000000000008152600401610e8b90612f2f565b60405180910390fd5b6000600660008481526020019081526020016000208054610eb490613283565b80601f0160208091040260200160405190810160405280929190818152602001828054610ee090613283565b8015610f2d5780601f10610f0257610100808354040283529160200191610f2d565b820191906000526020600020905b815481529060010190602001808311610f1057829003601f168201915b505050505090506000610f3e611b3d565b9050600081511415610f54578192505050610f97565b600082511115610f89578082604051602001610f71929190612b57565b60405160208183030381529060405292505050610f97565b610f9284611b54565b925050505b919050565b6000610fa86007611bfb565b90506000610fb58261073e565b90506000610fc283610bac565b90506000610fcf84610d2c565b90506000838383604051602001610fe893929190612b7b565b604051602081830303815290604052905060006110048661087c565b905060006008826009856040516020016110219493929190612bac565b604051602081830303815290604052905060006110668461104184611c09565b604051602001611052929190612c39565b604051602081830303815290604052611c09565b905060008160405160200161107b9190612ca0565b60405160208183030381529060405290506110ca6040518060400160405280601581526020017f0a2d2d2d2d2d2d2d2d2d2d2d2d2d2d2d2d2d2d2d2d000000000000000000000081525061122a565b6110d38161122a565b6111116040518060400160405280601581526020017f2d2d2d2d2d2d2d2d2d2d2d2d2d2d2d2d2d2d2d2d0a000000000000000000000081525061122a565b61111b338a611da8565b6111258982611dc6565b61112f6007611e3a565b611152604051806060016040528060258152602001613aeb602591398a33611e50565b7febb98688741ffa4c7589bf325de30cf7becb63de567842e1ccdb6cb949fdc82c338a604051611183929190612d4b565b60405180910390a1505050505050505050565b6000600560008473ffffffffffffffffffffffffffffffffffffffff1673ffffffffffffffffffffffffffffffffffffffff16815260200190815260200160002060008373ffffffffffffffffffffffffffffffffffffffff1673ffffffffffffffffffffffffffffffffffffffff16815260200190815260200160002060009054906101000a900460ff16905092915050565b6112c08160405160240161123e9190612d8f565b6040516020818303038152906040527f41304fac000000000000000000000000000000000000000000000000000000007bffffffffffffffffffffffffffffffffffffffffffffffffffffffff19166020820180517bffffffffffffffffffffffffffffffffffffffffffffffffffffffff8381831617835250505050611eef565b50565b60007f01ffc9a7000000000000000000000000000000000000000000000000000000007bffffffffffffffffffffffffffffffffffffffffffffffffffffffff1916827bffffffffffffffffffffffffffffffffffffffffffffffffffffffff1916149050919050565b60008073ffffffffffffffffffffffffffffffffffffffff166002600084815260200190815260200160002060009054906101000a900473ffffffffffffffffffffffffffffffffffffffff1673ffffffffffffffffffffffffffffffffffffffff1614159050919050565b600033905090565b816004600083815260200190815260200160002060006101000a81548173ffffffffffffffffffffffffffffffffffffffff021916908373ffffffffffffffffffffffffffffffffffffffff160217905550808273ffffffffffffffffffffffffffffffffffffffff166114148361099a565b73ffffffffffffffffffffffffffffffffffffffff167f8c5be1e5ebec7d5bd14f71427d1e84f3dd0314c0f7b2291e5b200ac8c7c3b92560405160405180910390a45050565b60006114658261132d565b6114a4576040517f08c379a000000000000000000000000000000000000000000000000000000000815260040161149b90612e6f565b60405180910390fd5b60006114af8361099a565b90508073ffffffffffffffffffffffffffffffffffffffff168473ffffffffffffffffffffffffffffffffffffffff16148061151e57508373ffffffffffffffffffffffffffffffffffffffff1661150684610541565b73ffffffffffffffffffffffffffffffffffffffff16145b8061152f575061152e8185611196565b5b91505092915050565b8273ffffffffffffffffffffffffffffffffffffffff166115588261099a565b73ffffffffffffffffffffffffffffffffffffffff16146115ae576040517f08c379a00000000000000000000000000000000000000000000000000000000081526004016115a590612f6f565b60405180910390fd5b600073ffffffffffffffffffffffffffffffffffffffff168273ffffffffffffffffffffffffffffffffffffffff16141561161e576040517f08c379a000000000000000000000000000000000000000000000000000000000815260040161161590612e2f565b60405180910390fd5b611629838383611f18565b6116346000826113a1565b6001600360008573ffffffffffffffffffffffffffffffffffffffff1673ffffffffffffffffffffffffffffffffffffffff16815260200190815260200160002060008282546116849190613199565b925050819055506001600360008473ffffffffffffffffffffffffffffffffffffffff1673ffffffffffffffffffffffffffffffffffffffff16815260200190815260200160002060008282546116db91906130b8565b92505081905550816002600083815260200190815260200160002060006101000a81548173ffffffffffffffffffffffffffffffffffffffff021916908373ffffffffffffffffffffffffffffffffffffffff160217905550808273ffffffffffffffffffffffffffffffffffffffff168473ffffffffffffffffffffffffffffffffffffffff167fddf252ad1be2c89b69c2b068fc378daa952ba7f163c4a11628f55a4df523b3ef60405160405180910390a4505050565b606060008214156117dc576040518060400160405280600181526020017f3000000000000000000000000000000000000000000000000000000000000000815250905061193c565b600082905060005b6000821461180e5780806117f7906132e6565b915050600a82611807919061310e565b91506117e4565b60008167ffffffffffffffff811115611850577f4e487b7100000000000000000000000000000000000000000000000000000000600052604160045260246000fd5b6040519080825280601f01601f1916602001820160405280156118825781602001600182028036833780820191505090505b5090505b600085146119355760018261189b9190613199565b9150600a856118aa919061332f565b60306118b691906130b8565b60f81b8183815181106118f2577f4e487b7100000000000000000000000000000000000000000000000000000000600052603260045260246000fd5b60200101907effffffffffffffffffffffffffffffffffffffffffffffffffffffffffffff1916908160001a905350600a8561192e919061310e565b9450611886565b8093505050505b919050565b6000816040516020016119549190612b40565b6040516020818303038152906040528051906020012060001c9050919050565b8173ffffffffffffffffffffffffffffffffffffffff168373ffffffffffffffffffffffffffffffffffffffff1614156119e3576040517f08c379a00000000000000000000000000000000000000000000000000000000081526004016119da90612e4f565b60405180910390fd5b80600560008573ffffffffffffffffffffffffffffffffffffffff1673ffffffffffffffffffffffffffffffffffffffff16815260200190815260200160002060008473ffffffffffffffffffffffffffffffffffffffff1673ffffffffffffffffffffffffffffffffffffffff16815260200190815260200160002060006101000a81548160ff0219169083151502179055508173ffffffffffffffffffffffffffffffffffffffff168373ffffffffffffffffffffffffffffffffffffffff167f17307eab39ab6107e8899845ad3d59bd9653f200f220920489ca2b5937696c3183604051611ad49190612d74565b60405180910390a3505050565b611aec848484611538565b611af884848484611f1d565b611b37576040517f08c379a0000000000000000000000000000000000000000000000000000000008152600401611b2e90612def565b60405180910390fd5b50505050565b606060405180602001604052806000815250905090565b6060611b5f8261132d565b611b9e576040517f08c379a0000000000000000000000000000000000000000000000000000000008152600401611b9590612f8f565b60405180910390fd5b6000611ba8611b3d565b90506000815111611bc85760405180602001604052806000815250611bf3565b80611bd284611794565b604051602001611be3929190612b57565b6040516020818303038152906040525b915050919050565b600081600001549050919050565b6060600082511415611c2c57604051806020016040528060008152509050611da3565b6000604051806060016040528060408152602001613b106040913990506000600360028551611c5b91906130b8565b611c65919061310e565b6004611c71919061313f565b90506000602082611c8291906130b8565b67ffffffffffffffff811115611cc1577f4e487b7100000000000000000000000000000000000000000000000000000000600052604160045260246000fd5b6040519080825280601f01601f191660200182016040528015611cf35781602001600182028036833780820191505090505b509050818152600183018586518101602084015b81831015611d62576003830192508251603f8160121c168501518253600182019150603f81600c1c168501518253600182019150603f8160061c168501518253600182019150603f8116850151825360018201915050611d07565b600389510660018114611d7c5760028114611d8c57611d97565b613d3d60f01b6002830352611d97565b603d60f81b60018303525b50505050508093505050505b919050565b611dc28282604051806020016040528060008152506120b4565b5050565b611dcf8261132d565b611e0e576040517f08c379a0000000000000000000000000000000000000000000000000000000008152600401611e0590612eef565b60405180910390fd5b80600660008481526020019081526020016000209080519060200190611e359291906122f0565b505050565b6001816000016000828254019250508190555050565b611eea838383604051602401611e6893929190612db1565b6040516020818303038152906040527fe3849f79000000000000000000000000000000000000000000000000000000007bffffffffffffffffffffffffffffffffffffffffffffffffffffffff19166020820180517bffffffffffffffffffffffffffffffffffffffffffffffffffffffff8381831617835250505050611eef565b505050565b60008151905060006a636f6e736f6c652e6c6f679050602083016000808483855afa5050505050565b505050565b6000611f3e8473ffffffffffffffffffffffffffffffffffffffff1661210f565b156120a7578373ffffffffffffffffffffffffffffffffffffffff1663150b7a02611f67611399565b8786866040518563ffffffff1660e01b8152600401611f899493929190612cff565b602060405180830381600087803b158015611fa357600080fd5b505af1925050508015611fd457506040513d601f19601f82011682018060405250810190611fd19190612634565b60015b612057573d8060008114612004576040519150601f19603f3d011682016040523d82523d6000602084013e612009565b606091505b5060008151141561204f576040517f08c379a000000000000000000000000000000000000000000000000000000000815260040161204690612def565b60405180910390fd5b805181602001fd5b63150b7a0260e01b7bffffffffffffffffffffffffffffffffffffffffffffffffffffffff1916817bffffffffffffffffffffffffffffffffffffffffffffffffffffffff1916149150506120ac565b600190505b949350505050565b6120be8383612122565b6120cb6000848484611f1d565b61210a576040517f08c379a000000000000000000000000000000000000000000000000000000000815260040161210190612def565b60405180910390fd5b505050565b600080823b905060008111915050919050565b600073ffffffffffffffffffffffffffffffffffffffff168273ffffffffffffffffffffffffffffffffffffffff161415612192576040517f08c379a000000000000000000000000000000000000000000000000000000000815260040161218990612f0f565b60405180910390fd5b61219b8161132d565b156121db576040517f08c379a00000000000000000000000000000000000000000000000000000000081526004016121d290612e0f565b60405180910390fd5b6121e760008383611f18565b6001600360008473ffffffffffffffffffffffffffffffffffffffff1673ffffffffffffffffffffffffffffffffffffffff168152602001908152602001600020600082825461223791906130b8565b92505081905550816002600083815260200190815260200160002060006101000a81548173ffffffffffffffffffffffffffffffffffffffff021916908373ffffffffffffffffffffffffffffffffffffffff160217905550808273ffffffffffffffffffffffffffffffffffffffff16600073ffffffffffffffffffffffffffffffffffffffff167fddf252ad1be2c89b69c2b068fc378daa952ba7f163c4a11628f55a4df523b3ef60405160405180910390a45050565b8280546122fc90613283565b90600052602060002090601f01602090048101928261231e5760008555612365565b82601f1061233757805160ff1916838001178555612365565b82800160010185558215612365579182015b82811115612364578251825591602001919060010190612349565b5b5090506123729190612376565b5090565b5b8082111561238f576000816000905550600101612377565b5090565b60006123a66123a18461302f565b61300a565b9050828152602081018484840111156123be57600080fd5b6123c9848285613241565b509392505050565b6000813590506123e081613a8e565b92915050565b6000813590506123f581613aa5565b92915050565b60008135905061240a81613abc565b92915050565b60008151905061241f81613abc565b92915050565b600082601f83011261243657600080fd5b8135612446848260208601612393565b91505092915050565b60008135905061245e81613ad3565b92915050565b60006020828403121561247657600080fd5b6000612484848285016123d1565b91505092915050565b600080604083850312156124a057600080fd5b60006124ae858286016123d1565b92505060206124bf858286016123d1565b9150509250929050565b6000806000606084860312156124de57600080fd5b60006124ec868287016123d1565b93505060206124fd868287016123d1565b925050604061250e8682870161244f565b9150509250925092565b6000806000806080858703121561252e57600080fd5b600061253c878288016123d1565b945050602061254d878288016123d1565b935050604061255e8782880161244f565b925050606085013567ffffffffffffffff81111561257b57600080fd5b61258787828801612425565b91505092959194509250565b600080604083850312156125a657600080fd5b60006125b4858286016123d1565b92505060206125c5858286016123e6565b9150509250929050565b600080604083850312156125e257600080fd5b60006125f0858286016123d1565b92505060206126018582860161244f565b9150509250929050565b60006020828403121561261d57600080fd5b600061262b848285016123fb565b91505092915050565b60006020828403121561264657600080fd5b600061265484828501612410565b91505092915050565b60006020828403121561266f57600080fd5b600061267d8482850161244f565b91505092915050565b61268f816131cd565b82525050565b61269e816131df565b82525050565b60006126af82613075565b6126b9818561308b565b93506126c9818560208601613250565b6126d28161341c565b840191505092915050565b60006126e882613080565b6126f2818561309c565b9350612702818560208601613250565b61270b8161341c565b840191505092915050565b600061272182613080565b61272b81856130ad565b935061273b818560208601613250565b80840191505092915050565b6000815461275481613283565b61275e81866130ad565b94506001821660008114612779576001811461278a576127bd565b60ff198316865281860193506127bd565b61279385613060565b60005b838110156127b557815481890152600182019150602081019050612796565b838801955050505b50505092915050565b60006127d360328361309c565b91506127de8261342d565b604082019050919050565b60006127f6601c8361309c565b91506128018261347c565b602082019050919050565b6000612819600a836130ad565b9150612824826134a5565b600a82019050919050565b600061283c60248361309c565b9150612847826134ce565b604082019050919050565b600061285f60198361309c565b915061286a8261351d565b602082019050919050565b60006128826063836130ad565b915061288d82613546565b606382019050919050565b60006128a5600b836130ad565b91506128b0826135e1565b600b82019050919050565b60006128c8602c8361309c565b91506128d38261360a565b604082019050919050565b60006128eb600d836130ad565b91506128f682613659565b600d82019050919050565b600061290e60388361309c565b915061291982613682565b604082019050919050565b6000612931602a8361309c565b915061293c826136d1565b604082019050919050565b600061295460298361309c565b915061295f82613720565b604082019050919050565b6000612977602e8361309c565b91506129828261376f565b604082019050919050565b600061299a6002836130ad565b91506129a5826137be565b600282019050919050565b60006129bd60208361309c565b91506129c8826137e7565b602082019050919050565b60006129e060318361309c565b91506129eb82613810565b604082019050919050565b6000612a03602c8361309c565b9150612a0e8261385f565b604082019050919050565b6000612a2660298361309c565b9150612a31826138ae565b604082019050919050565b6000612a49602f8361309c565b9150612a54826138fd565b604082019050919050565b6000612a6c600a836130ad565b9150612a778261394c565b600a82019050919050565b6000612a8f60218361309c565b9150612a9a82613975565b604082019050919050565b6000612ab2600a836130ad565b9150612abd826139c4565b600a82019050919050565b6000612ad5601d836130ad565b9150612ae0826139ed565b601d82019050919050565b6000612af860318361309c565b9150612b0382613a16565b604082019050919050565b6000612b1b6005836130ad565b9150612b2682613a65565b600582019050919050565b612b3a81613237565b82525050565b6000612b4c8284612716565b915081905092915050565b6000612b638285612716565b9150612b6f8284612716565b91508190509392505050565b6000612b878286612716565b9150612b938285612716565b9150612b9f8284612716565b9150819050949350505050565b6000612bb88287612747565b9150612bc48286612716565b9150612bd08285612747565b9150612bdc8284612716565b9150612be7826128de565b915081905095945050505050565b6000612c008261280c565b9150612c0c8284612716565b915081905092915050565b6000612c2282612898565b9150612c2e8284612716565b915081905092915050565b6000612c4482612a5f565b9150612c508285612716565b9150612c5b82612875565b9150612c678284612716565b9150612c728261298d565b91508190509392505050565b6000612c8982612aa5565b9150612c958284612716565b915081905092915050565b6000612cab82612ac8565b9150612cb78284612716565b915081905092915050565b6000612ccd82612b0e565b9150612cd98284612716565b915081905092915050565b6000602082019050612cf96000830184612686565b92915050565b6000608082019050612d146000830187612686565b612d216020830186612686565b612d2e6040830185612b31565b8181036060830152612d4081846126a4565b905095945050505050565b6000604082019050612d606000830185612686565b612d6d6020830184612b31565b9392505050565b6000602082019050612d896000830184612695565b92915050565b60006020820190508181036000830152612da981846126dd565b905092915050565b60006060820190508181036000830152612dcb81866126dd565b9050612dda6020830185612b31565b612de76040830184612686565b949350505050565b60006020820190508181036000830152612e08816127c6565b9050919050565b60006020820190508181036000830152612e28816127e9565b9050919050565b60006020820190508181036000830152612e488161282f565b9050919050565b60006020820190508181036000830152612e6881612852565b9050919050565b60006020820190508181036000830152612e88816128bb565b9050919050565b60006020820190508181036000830152612ea881612901565b9050919050565b60006020820190508181036000830152612ec881612924565b9050919050565b60006020820190508181036000830152612ee881612947565b9050919050565b60006020820190508181036000830152612f088161296a565b9050919050565b60006020820190508181036000830152612f28816129b0565b9050919050565b60006020820190508181036000830152612f48816129d3565b9050919050565b60006020820190508181036000830152612f68816129f6565b9050919050565b60006020820190508181036000830152612f8881612a19565b9050919050565b60006020820190508181036000830152612fa881612a3c565b9050919050565b60006020820190508181036000830152612fc881612a82565b9050919050565b60006020820190508181036000830152612fe881612aeb565b9050919050565b60006020820190506130046000830184612b31565b92915050565b6000613014613025565b905061302082826132b5565b919050565b6000604051905090565b600067ffffffffffffffff82111561304a576130496133ed565b5b6130538261341c565b9050602081019050919050565b60008190508160005260206000209050919050565b600081519050919050565b600081519050919050565b600082825260208201905092915050565b600082825260208201905092915050565b600081905092915050565b60006130c382613237565b91506130ce83613237565b9250827fffffffffffffffffffffffffffffffffffffffffffffffffffffffffffffffff0382111561310357613102613360565b5b828201905092915050565b600061311982613237565b915061312483613237565b9250826131345761313361338f565b5b828204905092915050565b600061314a82613237565b915061315583613237565b9250817fffffffffffffffffffffffffffffffffffffffffffffffffffffffffffffffff048311821515161561318e5761318d613360565b5b828202905092915050565b60006131a482613237565b91506131af83613237565b9250828210156131c2576131c1613360565b5b828203905092915050565b60006131d882613217565b9050919050565b60008115159050919050565b60007fffffffff0000000000000000000000000000000000000000000000000000000082169050919050565b600073ffffffffffffffffffffffffffffffffffffffff82169050919050565b6000819050919050565b82818337600083830152505050565b60005b8381101561326e578082015181840152602081019050613253565b8381111561327d576000848401525b50505050565b6000600282049050600182168061329b57607f821691505b602082108114156132af576132ae6133be565b5b50919050565b6132be8261341c565b810181811067ffffffffffffffff821117156132dd576132dc6133ed565b5b80604052505050565b60006132f182613237565b91507fffffffffffffffffffffffffffffffffffffffffffffffffffffffffffffffff82141561332457613323613360565b5b600182019050919050565b600061333a82613237565b915061334583613237565b9250826133555761335461338f565b5b828206905092915050565b7f4e487b7100000000000000000000000000000000000000000000000000000000600052601160045260246000fd5b7f4e487b7100000000000000000000000000000000000000000000000000000000600052601260045260246000fd5b7f4e487b7100000000000000000000000000000000000000000000000000000000600052602260045260246000fd5b7f4e487b7100000000000000000000000000000000000000000000000000000000600052604160045260246000fd5b6000601f19601f8301169050919050565b7f4552433732313a207472616e7366657220746f206e6f6e20455243373231526560008201527f63656976657220696d706c656d656e7465720000000000000000000000000000602082015250565b7f4552433732313a20746f6b656e20616c7265616479206d696e74656400000000600082015250565b7f54484952445f574f524400000000000000000000000000000000000000000000600082015250565b7f4552433732313a207472616e7366657220746f20746865207a65726f2061646460008201527f7265737300000000000000000000000000000000000000000000000000000000602082015250565b7f4552433732313a20617070726f766520746f2063616c6c657200000000000000600082015250565b7f222c20226465736372697074696f6e223a20224120686967686c79206163636c60008201527f61696d656420636f6c6c656374696f6e206f6620737175617265732e222c202260208201527f696d616765223a2022646174613a696d6167652f7376672b786d6c3b6261736560408201527f36342c0000000000000000000000000000000000000000000000000000000000606082015250565b7f5345434f4e445f574f5244000000000000000000000000000000000000000000600082015250565b7f4552433732313a206f70657261746f7220717565727920666f72206e6f6e657860008201527f697374656e7420746f6b656e0000000000000000000000000000000000000000602082015250565b7f3c2f746578743e3c2f7376673e00000000000000000000000000000000000000600082015250565b7f4552433732313a20617070726f76652063616c6c6572206973206e6f74206f7760008201527f6e6572206e6f7220617070726f76656420666f7220616c6c0000000000000000602082015250565b7f4552433732313a2062616c616e636520717565727920666f7220746865207a6560008201527f726f206164647265737300000000000000000000000000000000000000000000602082015250565b7f4552433732313a206f776e657220717565727920666f72206e6f6e657869737460008201527f656e7420746f6b656e0000000000000000000000000000000000000000000000602082015250565b7f45524337323155524953746f726167653a2055524920736574206f66206e6f6e60008201527f6578697374656e7420746f6b656e000000000000000000000000000000000000602082015250565b7f227d000000000000000000000000000000000000000000000000000000000000600082015250565b7f4552433732313a206d696e7420746f20746865207a65726f2061646472657373600082015250565b7f45524337323155524953746f726167653a2055524920717565727920666f722060008201527f6e6f6e6578697374656e7420746f6b656e000000000000000000000000000000602082015250565b7f4552433732313a20617070726f76656420717565727920666f72206e6f6e657860008201527f697374656e7420746f6b656e0000000000000000000000000000000000000000602082015250565b7f4552433732313a207472616e73666572206f6620746f6b656e2074686174206960008201527f73206e6f74206f776e0000000000000000000000000000000000000000000000602082015250565b7f4552433732314d657461646174613a2055524920717565727920666f72206e6f60008201527f6e6578697374656e7420746f6b656e0000000000000000000000000000000000602082015250565b7f7b226e616d65223a202200000000000000000000000000000000000000000000600082015250565b7f4552433732313a20617070726f76616c20746f2063757272656e74206f776e6560008201527f7200000000000000000000000000000000000000000000000000000000000000602082015250565b7f46495253545f574f524400000000000000000000000000000000000000000000600082015250565b7f646174613a6170706c69636174696f6e2f6a736f6e3b6261736536342c000000600082015250565b7f4552433732313a207472616e736665722063616c6c6572206973206e6f74206f60008201527f776e6572206e6f7220617070726f766564000000000000000000000000000000602082015250565b7f434f4c4f52000000000000000000000000000000000000000000000000000000600082015250565b613a97816131cd565b8114613aa257600080fd5b50565b613aae816131df565b8114613ab957600080fd5b50565b613ac5816131eb565b8114613ad057600080fd5b50565b613adc81613237565b8114613ae757600080fd5b5056fe416e204e465420772f20494420257320686173206265656e206d696e74656420746f2025734142434445464748494a4b4c4d4e4f505152535455565758595a6162636465666768696a6b6c6d6e6f707172737475767778797a303132333435363738392b2fa2646970667358221220a2ce9627fb72a8a4cdbc3beb48a77be5a53c46d8bd055a5a77b647549293b79064736f6c634300080400333c73766720786d6c6e733d27687474703a2f2f7777772e77332e6f72672f323030302f73766727207072657365727665417370656374526174696f3d27784d696e594d696e206d656574272076696577426f783d273020302033353020333530273e3c7374796c653e2e62617365207b2066696c6c3a2077686974653b20666f6e742d66616d696c793a2073657269663b20666f6e742d73697a653a20323470783b207d3c2f7374796c653e3c726563742077696474683d273130302527206865696768743d2731303025272066696c6c3d27272f3e3c7465787420783d273530252720793d273530252720636c6173733d27626173652720646f6d696e616e742d626173656c696e653d276d6964646c652720746578742d616e63686f723d276d6964646c65273e",
  "linkReferences": {},
  "deployedLinkReferences": {}
}